{
  "contractName": "ConvertLib",
  "abi": [
    {
      "constant": true,
      "inputs": [
        {
          "name": "amount",
          "type": "uint256"
        },
        {
          "name": "conversionRate",
          "type": "uint256"
        }
      ],
      "name": "convert",
      "outputs": [
        {
          "name": "convertedAmount",
          "type": "uint256"
        }
      ],
      "payable": false,
      "stateMutability": "pure",
      "type": "function"
    }
  ],
  "bytecode": "0x60dd61002f600b82828239805160001a6073146000811461001f57610021565bfe5b5030600052607381538281f3fe73000000000000000000000000000000000000000030146080604052600436106056576000357c0100000000000000000000000000000000000000000000000000000000900463ffffffff16806396e4ee3d14605b575b600080fd5b608e60048036036040811015606f57600080fd5b81019080803590602001909291908035906020019092919050505060a4565b6040518082815260200191505060405180910390f35b600081830290509291505056fea165627a7a72305820425892192b86dc45eb722e0e07837660bf8198927b201b91764c8761b07a1cc50029",
  "source": "pragma solidity >=0.4.25 <0.6.0;\r\n\r\nlibrary ConvertLib{\r\n\tfunction convert(uint amount,uint conversionRate) public pure returns (uint convertedAmount)\r\n\t{\r\n\t\treturn amount * conversionRate;\r\n\t}\r\n}\r\n",
  "sourcePath": "S:\\Programming\\FaceRecognition\\truffleReact\\contracts\\ConvertLib.sol",
  "compiler": {
    "name": "solc",
    "version": "0.5.0+commit.1d4f565a.Emscripten.clang"
  },
  "schemaVersion": "3.0.3",
  "updatedAt": "2019-04-13T10:57:12.227Z",
  "devdoc": {
    "methods": {}
  },
  "userdoc": {
    "methods": {}
  }
}