{
  "contractName": "FaceRecognition",
  "abi": [
    {
      "constant": true,
      "inputs": [],
      "name": "willBeStoppedInFourWeeks",
      "outputs": [
        {
          "name": "",
          "type": "bool"
        }
      ],
      "payable": false,
      "stateMutability": "view",
      "type": "function",
      "signature": "0x18c08f6f"
    },
    {
      "constant": true,
      "inputs": [],
      "name": "stopped",
      "outputs": [
        {
          "name": "",
          "type": "bool"
        }
      ],
      "payable": false,
      "stateMutability": "view",
      "type": "function",
      "signature": "0x75f12b21"
    },
    {
      "constant": false,
      "inputs": [],
      "name": "destroy",
      "outputs": [],
      "payable": false,
      "stateMutability": "nonpayable",
      "type": "function",
      "signature": "0x83197ef0"
    },
    {
      "constant": true,
      "inputs": [],
      "name": "owner",
      "outputs": [
        {
          "name": "",
          "type": "address"
        }
      ],
      "payable": false,
      "stateMutability": "view",
      "type": "function",
      "signature": "0x8da5cb5b"
    },
    {
      "constant": false,
      "inputs": [
        {
          "name": "newOwner",
          "type": "address"
        }
      ],
      "name": "transferOwnership",
      "outputs": [],
      "payable": false,
      "stateMutability": "nonpayable",
      "type": "function",
      "signature": "0xf2fde38b"
    },
    {
      "constant": false,
      "inputs": [
        {
          "name": "_recipient",
          "type": "address"
        }
      ],
      "name": "destroyAndSend",
      "outputs": [],
      "payable": false,
      "stateMutability": "nonpayable",
      "type": "function",
      "signature": "0xf5074f41"
    },
    {
      "inputs": [],
      "payable": false,
      "stateMutability": "nonpayable",
      "type": "constructor",
      "signature": "constructor"
    },
    {
      "payable": true,
      "stateMutability": "payable",
      "type": "fallback"
    },
    {
      "anonymous": false,
      "inputs": [
        {
          "indexed": true,
          "name": "previousOwner",
          "type": "address"
        },
        {
          "indexed": true,
          "name": "newOwner",
          "type": "address"
        }
      ],
      "name": "OwnershipTransferred",
      "type": "event",
      "signature": "0x8be0079c531659141344cd1fd0a4f28419497f9722a3daafe3b4186f6b6457e0"
    },
    {
      "constant": false,
      "inputs": [],
      "name": "toggleContractActive",
      "outputs": [],
      "payable": false,
      "stateMutability": "nonpayable",
      "type": "function",
      "signature": "0x1385d24c"
    },
    {
      "constant": false,
      "inputs": [
        {
          "name": "count",
          "type": "uint256"
        }
      ],
      "name": "registerImage",
      "outputs": [],
      "payable": false,
      "stateMutability": "nonpayable",
      "type": "function",
      "signature": "0x4a14d706"
    },
    {
      "constant": false,
      "inputs": [],
      "name": "enroll",
      "outputs": [],
      "payable": true,
      "stateMutability": "payable",
      "type": "function",
      "signature": "0xe65f2a7e"
    },
    {
      "constant": false,
      "inputs": [],
      "name": "acceptDonation",
      "outputs": [],
      "payable": true,
      "stateMutability": "payable",
      "type": "function",
      "signature": "0x31c660c4"
    },
    {
      "constant": true,
      "inputs": [],
      "name": "getBiggestDonation",
      "outputs": [
        {
          "name": "",
          "type": "uint256"
        }
      ],
      "payable": false,
      "stateMutability": "view",
      "type": "function",
      "signature": "0xad17a549"
    },
    {
      "constant": true,
      "inputs": [],
      "name": "getTotalDonations",
      "outputs": [
        {
          "name": "",
          "type": "uint256"
        }
      ],
      "payable": false,
      "stateMutability": "view",
      "type": "function",
      "signature": "0x777c658f"
    },
    {
      "constant": false,
      "inputs": [],
      "name": "receiveAward",
      "outputs": [],
      "payable": true,
      "stateMutability": "payable",
      "type": "function",
      "signature": "0xdf86aa6b"
    }
  ],
  "bytecode": "0x608060405234801561001057600080fd5b50336000806101000a81548173ffffffffffffffffffffffffffffffffffffffff021916908373ffffffffffffffffffffffffffffffffffffffff16021790555042600b819055506000600a60006101000a81548160ff0219169083151502179055506001600a60016101000a81548160ff02191690831515021790555061141c8061009d6000396000f3fe6080604052600436106100c5576000357c0100000000000000000000000000000000000000000000000000000000900463ffffffff1680631385d24c146100ca57806318c08f6f146100e157806331c660c4146101105780634a14d7061461011a57806375f12b2114610155578063777c658f1461018457806383197ef0146101af5780638da5cb5b146101c6578063ad17a5491461021d578063df86aa6b14610248578063e65f2a7e14610252578063f2fde38b1461025c578063f5074f41146102ad575b600080fd5b3480156100d657600080fd5b506100df6102fe565b005b3480156100ed57600080fd5b506100f66103ea565b604051808215151515815260200191505060405180910390f35b6101186103fd565b005b34801561012657600080fd5b506101536004803603602081101561013d57600080fd5b8101908080359060200190929190505050610505565b005b34801561016157600080fd5b5061016a6106e9565b604051808215151515815260200191505060405180910390f35b34801561019057600080fd5b506101996106fc565b6040518082815260200191505060405180910390f35b3480156101bb57600080fd5b506101c46108ff565b005b3480156101d257600080fd5b506101db610994565b604051808273ffffffffffffffffffffffffffffffffffffffff1673ffffffffffffffffffffffffffffffffffffffff16815260200191505060405180910390f35b34801561022957600080fd5b506102326109b9565b6040518082815260200191505060405180910390f35b610250610bbc565b005b61025a6110f8565b005b34801561026857600080fd5b506102ab6004803603602081101561027f57600080fd5b81019080803573ffffffffffffffffffffffffffffffffffffffff169060200190929190505050611227565b005b3480156102b957600080fd5b506102fc600480360360208110156102d057600080fd5b81019080803573ffffffffffffffffffffffffffffffffffffffff16906020019092919050505061137c565b005b6000809054906101000a900473ffffffffffffffffffffffffffffffffffffffff1673ffffffffffffffffffffffffffffffffffffffff163373ffffffffffffffffffffffffffffffffffffffff1614151561035957600080fd5b600a60009054906101000a900460ff16156103a2576001600a60016101000a81548160ff02191690831515021790555042601c600b54011015151561039d57600080fd5b6103be565b6000600a60016101000a81548160ff0219169083151502179055505b600a60009054906101000a900460ff1615600a60006101000a81548160ff021916908315150217905550565b600a60019054906101000a900460ff1681565b600034111515610475576040517f08c379a00000000000000000000000000000000000000000000000000000000081526004018080602001828103825260158152602001807f506c656173652073656e64207573206d6f6e657921000000000000000000000081525060200191505060405180910390fd5b600573__DonationLib___________________________63fe6697e79091346040518363ffffffff167c0100000000000000000000000000000000000000000000000000000000028152600401808381526020018281526020019250505060006040518083038186803b1580156104eb57600080fd5b505af41580156104ff573d6000803e3d6000fd5b50505050565b33600573__DonationLib___________________________63947a8e599091836040518363ffffffff167c0100000000000000000000000000000000000000000000000000000000028152600401808381526020018273ffffffffffffffffffffffffffffffffffffffff1673ffffffffffffffffffffffffffffffffffffffff1681526020019250505060206040518083038186803b1580156105a857600080fd5b505af41580156105bc573d6000803e3d6000fd5b505050506040513d60208110156105d257600080fd5b81019080805190602001909291905050501515610657576040517f08c379a00000000000000000000000000000000000000000000000000000000081526004018080602001828103825260188152602001807f596f75206861766520746f20666972737420656e726f6c6c000000000000000081525060200191505060405180910390fd5b600173__GameLib_______________________________63e308aaad9091846040518363ffffffff167c0100000000000000000000000000000000000000000000000000000000028152600401808381526020018281526020019250505060006040518083038186803b1580156106cd57600080fd5b505af41580156106e1573d6000803e3d6000fd5b505050505050565b600a60009054906101000a900460ff1681565b600033600573__DonationLib___________________________63947a8e599091836040518363ffffffff167c0100000000000000000000000000000000000000000000000000000000028152600401808381526020018273ffffffffffffffffffffffffffffffffffffffff1673ffffffffffffffffffffffffffffffffffffffff1681526020019250505060206040518083038186803b1580156107a157600080fd5b505af41580156107b5573d6000803e3d6000fd5b505050506040513d60208110156107cb57600080fd5b81019080805190602001909291905050501515610850576040517f08c379a00000000000000000000000000000000000000000000000000000000081526004018080602001828103825260188152602001807f596f75206861766520746f20666972737420656e726f6c6c000000000000000081525060200191505060405180910390fd5b600573__DonationLib___________________________635621e3d790916040518263ffffffff167c01000000000000000000000000000000000000000000000000000000000281526004018082815260200191505060206040518083038186803b1580156108be57600080fd5b505af41580156108d2573d6000803e3d6000fd5b505050506040513d60208110156108e857600080fd5b810190808051906020019092919050505091505090565b6000809054906101000a900473ffffffffffffffffffffffffffffffffffffffff1673ffffffffffffffffffffffffffffffffffffffff163373ffffffffffffffffffffffffffffffffffffffff1614151561095a57600080fd5b6000809054906101000a900473ffffffffffffffffffffffffffffffffffffffff1673ffffffffffffffffffffffffffffffffffffffff16ff5b6000809054906101000a900473ffffffffffffffffffffffffffffffffffffffff1681565b600033600573__DonationLib___________________________63947a8e599091836040518363ffffffff167c0100000000000000000000000000000000000000000000000000000000028152600401808381526020018273ffffffffffffffffffffffffffffffffffffffff1673ffffffffffffffffffffffffffffffffffffffff1681526020019250505060206040518083038186803b158015610a5e57600080fd5b505af4158015610a72573d6000803e3d6000fd5b505050506040513d6020811015610a8857600080fd5b81019080805190602001909291905050501515610b0d576040517f08c379a00000000000000000000000000000000000000000000000000000000081526004018080602001828103825260188152602001807f596f75206861766520746f20666972737420656e726f6c6c000000000000000081525060200191505060405180910390fd5b600573__DonationLib___________________________632b153c7390916040518263ffffffff167c01000000000000000000000000000000000000000000000000000000000281526004018082815260200191505060206040518083038186803b158015610b7b57600080fd5b505af4158015610b8f573d6000803e3d6000fd5b505050506040513d6020811015610ba557600080fd5b810190808051906020019092919050505091505090565b33600573__DonationLib___________________________63947a8e599091836040518363ffffffff167c0100000000000000000000000000000000000000000000000000000000028152600401808381526020018273ffffffffffffffffffffffffffffffffffffffff1673ffffffffffffffffffffffffffffffffffffffff1681526020019250505060206040518083038186803b158015610c5f57600080fd5b505af4158015610c73573d6000803e3d6000fd5b505050506040513d6020811015610c8957600080fd5b81019080805190602001909291905050501515610d0e576040517f08c379a00000000000000000000000000000000000000000000000000000000081526004018080602001828103825260188152602001807f596f75206861766520746f20666972737420656e726f6c6c000000000000000081525060200191505060405180910390fd5b42601c600b5401111515610db0576040517f08c379a00000000000000000000000000000000000000000000000000000000081526004018080602001828103825260388152602001807f54686520616374696f6e20697320617661696c61626c65206f6e6c792077686581526020017f6e2073746f7020706572696f642068617320706173736564000000000000000081525060400191505060405180910390fd5b60003390508073ffffffffffffffffffffffffffffffffffffffff16600173__GameLib_______________________________63801de72390916040518263ffffffff167c01000000000000000000000000000000000000000000000000000000000281526004018082815260200191505060206040518083038186803b158015610e3a57600080fd5b505af4158015610e4e573d6000803e3d6000fd5b505050506040513d6020811015610e6457600080fd5b810190808051906020019092919050505073ffffffffffffffffffffffffffffffffffffffff16141515610f00576040517f08c379a000000000000000000000000000000000000000000000000000000000815260040180806020018281038252601a8152602001807f4f6e6c79207468652077696e6e65722063616e2067657420697400000000000081525060200191505060405180910390fd5b600173__GameLib_______________________________636706166390916040518263ffffffff167c01000000000000000000000000000000000000000000000000000000000281526004018082815260200191505060006040518083038186803b158015610f6e57600080fd5b505af4158015610f82573d6000803e3d6000fd5b50505050600573__DonationLib___________________________63b5bc519b90916040518263ffffffff167c01000000000000000000000000000000000000000000000000000000000281526004018082815260200191505060006040518083038186803b158015610ff457600080fd5b505af4158015611008573d6000803e3d6000fd5b5050505060013073ffffffffffffffffffffffffffffffffffffffff16311115611096576000809054906101000a900473ffffffffffffffffffffffffffffffffffffffff1673ffffffffffffffffffffffffffffffffffffffff166108fc60019081150290604051600060405180830381858888f19350505050158015611094573d6000803e3d6000fd5b505b8073ffffffffffffffffffffffffffffffffffffffff166108fc3073ffffffffffffffffffffffffffffffffffffffff16319081150290604051600060405180830381858888f193505050501580156110f3573d6000803e3d6000fd5b505050565b60013410151515611197576040517f08c379a00000000000000000000000000000000000000000000000000000000081526004018080602001828103825260268152602001807f53656e64206174206c65617374206f6e6520657468657220746f20706172746981526020017f636970617465000000000000000000000000000000000000000000000000000081525060400191505060405180910390fd5b600573__DonationLib___________________________63fe6697e79091346040518363ffffffff167c0100000000000000000000000000000000000000000000000000000000028152600401808381526020018281526020019250505060006040518083038186803b15801561120d57600080fd5b505af4158015611221573d6000803e3d6000fd5b50505050565b6000809054906101000a900473ffffffffffffffffffffffffffffffffffffffff1673ffffffffffffffffffffffffffffffffffffffff163373ffffffffffffffffffffffffffffffffffffffff1614151561128257600080fd5b600073ffffffffffffffffffffffffffffffffffffffff168173ffffffffffffffffffffffffffffffffffffffff16141515156112be57600080fd5b8073ffffffffffffffffffffffffffffffffffffffff166000809054906101000a900473ffffffffffffffffffffffffffffffffffffffff1673ffffffffffffffffffffffffffffffffffffffff167f8be0079c531659141344cd1fd0a4f28419497f9722a3daafe3b4186f6b6457e060405160405180910390a3806000806101000a81548173ffffffffffffffffffffffffffffffffffffffff021916908373ffffffffffffffffffffffffffffffffffffffff16021790555050565b6000809054906101000a900473ffffffffffffffffffffffffffffffffffffffff1673ffffffffffffffffffffffffffffffffffffffff163373ffffffffffffffffffffffffffffffffffffffff161415156113d757600080fd5b8073ffffffffffffffffffffffffffffffffffffffff16fffea165627a7a7230582009619d81ba5d950a2d6955c13dee128636532804b68d256be1119c15cbbc932d0029",
  "source": "pragma solidity >=0.4.25 <0.6.0;\r\n\r\nimport \"./Ownable.sol\";\r\nimport \"./Destructible.sol\";\r\nimport \"./GameLib.sol\";\r\nimport \"./SafeMathLib.sol\";\r\nimport \"./DonationLib.sol\";\r\n\r\ncontract FaceRecognition is Ownable, Destructible {\r\n    using GameLib for GameLib.Data;\r\n    using DonationLib for DonationLib.Data;\r\n    using SafeMathLib for uint;\r\n    \r\n    GameLib.Data gamelibData;\r\n    DonationLib.Data donationLibData;\r\n\r\n    uint constant stopPeriod = 28;\r\n    \r\n    uint winningPeriod;\r\n    bool public stopped;\r\n    bool public willBeStoppedInFourWeeks;\r\n    uint startTime;\r\n    \r\n    constructor() public {\r\n        startTime = now;\r\n        stopped = false;\r\n        willBeStoppedInFourWeeks = true;\r\n    }\r\n    \r\n    modifier onlyAfterPeriod() {\r\n        require(startTime + stopPeriod > now, \"The action is available only when stop period has passed\");\r\n        _;\r\n    }\r\n\r\n    modifier stopInEmergency { \r\n        require(!stopped);\r\n        _;\r\n    }\r\n    \r\n    modifier onlyInEmergency { \r\n        require(stopped);\r\n        _;\r\n    }\r\n    \r\n    modifier onlyEnrolled(address isEnrolled) {\r\n        require(donationLibData.hasDonated(isEnrolled), \"You have to first enroll\");\r\n        _;\r\n    }\r\n    \r\n    function toggleContractActive() onlyOwner public {\r\n        if (stopped) {\r\n            willBeStoppedInFourWeeks = true;\r\n            require(startTime + stopPeriod >= now);\r\n        } else {\r\n            willBeStoppedInFourWeeks = false;\r\n        }\r\n        stopped = !stopped;\r\n    }\r\n    \r\n    function registerImage(uint count) public onlyEnrolled(msg.sender) {\r\n        gamelibData.registerCount(count);\r\n    }\r\n    \r\n    function enroll() public payable {\r\n        require(msg.value >= 1, \"Send at least one ether to participate\");\r\n        donationLibData.receiveDonation(msg.value);\r\n    }\r\n    \r\n    function acceptDonation() public payable {\r\n        require(msg.value > 0, \"Please send us money!\");\r\n        donationLibData.receiveDonation(msg.value);\r\n    }\r\n    \r\n    function getBiggestDonation() public view onlyEnrolled(msg.sender) returns(uint) {\r\n        return donationLibData.getBiggestDonation();\r\n    }\r\n    \r\n    function getTotalDonations() public view  onlyEnrolled(msg.sender) returns(uint) {\r\n        return donationLibData.getTotalDonations();\r\n    }\r\n    \r\n    function receiveAward() public payable onlyEnrolled(msg.sender) onlyAfterPeriod {\r\n        address payable currentUser = msg.sender;\r\n        require(gamelibData.getMostImages() == currentUser, \"Only the winner can get it\");        \r\n        gamelibData.reset();\r\n        donationLibData.reset();\r\n        if (address(this).balance > 1) {\r\n            owner.transfer(1);\r\n        }\r\n        currentUser.transfer(address(this).balance);\r\n    }\r\n    \r\n    function() external payable {\r\n        revert();\r\n    }\r\n}",
  "sourcePath": "S:/Programming/FaceRecognition/truffleReact/contracts/FaceRecognition.sol",
  "compiler": {
    "name": "solc",
    "version": "0.5.0+commit.1d4f565a.Emscripten.clang"
  },
  "schemaVersion": "3.0.3",
  "updatedAt": "2019-04-13T10:57:12.253Z",
  "devdoc": {
    "methods": {}
  },
  "userdoc": {
    "methods": {}
  }
}