{
  "contractName": "DonationLib",
  "abi": [
    {
      "anonymous": false,
      "inputs": [
        {
          "indexed": true,
          "name": "donor",
          "type": "address"
        },
        {
          "indexed": false,
          "name": "amount",
          "type": "uint256"
        }
      ],
      "name": "ReceivedDonation",
      "type": "event",
      "signature": "0x52ebee8a8342eb34b5a832f4fd19ad0268d75c5754b103efc8a0149e81a3745e"
    },
    {
      "constant": false,
      "inputs": [
        {
          "name": "self",
          "type": "DonationLib.Data storage"
        },
        {
          "name": "value",
          "type": "uint256"
        }
      ],
      "name": "receiveDonation",
      "outputs": [],
      "payable": false,
      "stateMutability": "nonpayable",
      "type": "function",
      "signature": "0xfe6697e7"
    },
    {
      "constant": true,
      "inputs": [
        {
          "name": "self",
          "type": "DonationLib.Data storage"
        },
        {
          "name": "account",
          "type": "address"
        }
      ],
      "name": "getDonationForAddress",
      "outputs": [
        {
          "name": "",
          "type": "uint256"
        }
      ],
      "payable": false,
      "stateMutability": "view",
      "type": "function",
      "signature": "0xa80c765b"
    },
    {
      "constant": true,
      "inputs": [
        {
          "name": "self",
          "type": "DonationLib.Data storage"
        },
        {
          "name": "account",
          "type": "address"
        }
      ],
      "name": "hasDonated",
      "outputs": [
        {
          "name": "",
          "type": "bool"
        }
      ],
      "payable": false,
      "stateMutability": "view",
      "type": "function",
      "signature": "0x947a8e59"
    },
    {
      "constant": true,
      "inputs": [
        {
          "name": "self",
          "type": "DonationLib.Data storage"
        }
      ],
      "name": "getBiggestDonation",
      "outputs": [
        {
          "name": "",
          "type": "uint256"
        }
      ],
      "payable": false,
      "stateMutability": "view",
      "type": "function",
      "signature": "0x2b153c73"
    },
    {
      "constant": true,
      "inputs": [
        {
          "name": "self",
          "type": "DonationLib.Data storage"
        }
      ],
      "name": "getTotalDonations",
      "outputs": [
        {
          "name": "",
          "type": "uint256"
        }
      ],
      "payable": false,
      "stateMutability": "view",
      "type": "function",
      "signature": "0x5621e3d7"
    },
    {
      "constant": false,
      "inputs": [
        {
          "name": "self",
          "type": "DonationLib.Data storage"
        }
      ],
      "name": "reset",
      "outputs": [],
      "payable": false,
      "stateMutability": "nonpayable",
      "type": "function",
      "signature": "0xb5bc519b"
    }
  ],
  "bytecode": "0x6106cf610030600b82828239805160001a6073146000811461002057610022565bfe5b5030600052607381538281f3fe730000000000000000000000000000000000000000301460806040526004361061008f576000357c0100000000000000000000000000000000000000000000000000000000900463ffffffff1680632b153c73146100945780635621e3d7146100d6578063947a8e5914610118578063a80c765b1461017e578063b5bc519b146101e0578063fe6697e71461021b575b600080fd5b6100c0600480360360208110156100aa57600080fd5b8101908080359060200190929190505050610260565b6040518082815260200191505060405180910390f35b610102600480360360208110156100ec57600080fd5b810190808035906020019092919050505061026e565b6040518082815260200191505060405180910390f35b6101646004803603604081101561012e57600080fd5b8101908080359060200190929190803573ffffffffffffffffffffffffffffffffffffffff16906020019092919050505061027c565b604051808215151515815260200191505060405180910390f35b6101ca6004803603604081101561019457600080fd5b8101908080359060200190929190803573ffffffffffffffffffffffffffffffffffffffff1690602001909291905050506102ca565b6040518082815260200191505060405180910390f35b8180156101ec57600080fd5b506102196004803603602081101561020357600080fd5b8101908080359060200190929190505050610316565b005b81801561022757600080fd5b5061025e6004803603604081101561023e57600080fd5b8101908080359060200190929190803590602001909291905050506103e0565b005b600081600201549050919050565b600081600101549050919050565b6000808360000160008473ffffffffffffffffffffffffffffffffffffffff1673ffffffffffffffffffffffffffffffffffffffff1681526020019081526020016000205411905092915050565b60008260000160008373ffffffffffffffffffffffffffffffffffffffff1673ffffffffffffffffffffffffffffffffffffffff16815260200190815260200160002054905092915050565b600081600101819055506000816002018190555060008090505b81600301805490508110156103cc57816000016000836003018381548110151561035657fe5b9060005260206000200160009054906101000a900473ffffffffffffffffffffffffffffffffffffffff1673ffffffffffffffffffffffffffffffffffffffff1673ffffffffffffffffffffffffffffffffffffffff168152602001908152602001600020600090558080600101915050610330565b508060030160006103dd919061065d565b50565b600081111515610458576040517f08c379a00000000000000000000000000000000000000000000000000000000081526004018080602001828103825260158152602001807f506c656173652073656e64207573206d6f6e657921000000000000000000000081525060200191505060405180910390fd5b600033905060008360000160008373ffffffffffffffffffffffffffffffffffffffff1673ffffffffffffffffffffffffffffffffffffffff1681526020019081526020016000205411151561051157826003018190806001815401808255809150509060018203906000526020600020016000909192909190916101000a81548173ffffffffffffffffffffffffffffffffffffffff021916908373ffffffffffffffffffffffffffffffffffffffff160217905550505b818360000160008373ffffffffffffffffffffffffffffffffffffffff1673ffffffffffffffffffffffffffffffffffffffff1681526020019081526020016000206000828254019250508190555082600201548360000160008373ffffffffffffffffffffffffffffffffffffffff1673ffffffffffffffffffffffffffffffffffffffff1681526020019081526020016000205411156105f8578260000160008273ffffffffffffffffffffffffffffffffffffffff1673ffffffffffffffffffffffffffffffffffffffff1681526020019081526020016000205483600201819055505b8183600101600082825401925050819055508073ffffffffffffffffffffffffffffffffffffffff167f52ebee8a8342eb34b5a832f4fd19ad0268d75c5754b103efc8a0149e81a3745e836040518082815260200191505060405180910390a2505050565b508054600082559060005260206000209081019061067b919061067e565b50565b6106a091905b8082111561069c576000816000905550600101610684565b5090565b9056fea165627a7a72305820259bc1b046394a7ee7e88e3137610e718d7ed680cfc15ae428f8258e42c75a820029",
  "source": "pragma solidity >=0.4.25 <0.6.0;\r\n\r\nlibrary DonationLib {\r\n    \r\n    struct Data {\r\n        mapping(address => uint) donors;\r\n        uint totalDonations;\r\n        uint biggestDonation;\r\n        address[] allAdresses;\r\n    }    \r\n    \r\n    event ReceivedDonation(address indexed donor, uint amount);\r\n    \r\n    function receiveDonation(Data storage self, uint value) public {\r\n        require(value > 0, \"Please send us money!\");\r\n        address sender = msg.sender;\r\n        if (self.donors[sender] <= 0) {\r\n            self.allAdresses.push(sender);\r\n        }\r\n        self.donors[sender] += value;\r\n        if (self.donors[sender] > self.biggestDonation) {\r\n            self.biggestDonation = self.donors[sender];\r\n        }\r\n        self.totalDonations += value;\r\n        emit ReceivedDonation(sender, value);\r\n    }\r\n    \r\n    function getDonationForAddress(Data storage self, address account) public view returns(uint) {\r\n        return self.donors[account];\r\n    }\r\n    \r\n    function hasDonated(Data storage self, address account) public view returns(bool) {\r\n        return self.donors[account] > 0;\r\n    }\r\n    \r\n    function getBiggestDonation(Data storage self) public view returns(uint) {\r\n        return self.biggestDonation;\r\n    }\r\n    \r\n    function getTotalDonations(Data storage self) public view returns(uint) {\r\n        return self.totalDonations;\r\n    }\r\n    \r\n    function reset(Data storage self) public {\r\n        self.totalDonations = 0;\r\n        self.biggestDonation = 0;\r\n        for (uint i=0; i< self.allAdresses.length; i++) {\r\n            delete(self.donors[self.allAdresses[i]]);\r\n        }\r\n        delete self.allAdresses;\r\n    }\r\n}",
  "sourcePath": "S:\\Programming\\FaceRecognition\\truffleReact\\contracts\\DonationLib.sol",
  "compiler": {
    "name": "solc",
    "version": "0.5.0+commit.1d4f565a.Emscripten.clang"
  },
  "schemaVersion": "3.0.6",
  "updatedAt": "2019-04-13T22:49:16.084Z",
  "devdoc": {
    "methods": {}
  },
  "userdoc": {
    "methods": {}
  }
}