{
  "contractName": "FaceRecognition",
  "abi": [
    {
      "constant": true,
      "inputs": [],
      "name": "willBeStoppedInFourWeeks",
      "outputs": [
        {
          "name": "",
          "type": "bool"
        }
      ],
      "payable": false,
      "stateMutability": "view",
      "type": "function",
      "signature": "0x18c08f6f"
    },
    {
      "constant": true,
      "inputs": [],
      "name": "stopped",
      "outputs": [
        {
          "name": "",
          "type": "bool"
        }
      ],
      "payable": false,
      "stateMutability": "view",
      "type": "function",
      "signature": "0x75f12b21"
    },
    {
      "constant": false,
      "inputs": [],
      "name": "destroy",
      "outputs": [],
      "payable": false,
      "stateMutability": "nonpayable",
      "type": "function",
      "signature": "0x83197ef0"
    },
    {
      "constant": true,
      "inputs": [],
      "name": "owner",
      "outputs": [
        {
          "name": "",
          "type": "address"
        }
      ],
      "payable": false,
      "stateMutability": "view",
      "type": "function",
      "signature": "0x8da5cb5b"
    },
    {
      "constant": false,
      "inputs": [
        {
          "name": "newOwner",
          "type": "address"
        }
      ],
      "name": "transferOwnership",
      "outputs": [],
      "payable": false,
      "stateMutability": "nonpayable",
      "type": "function",
      "signature": "0xf2fde38b"
    },
    {
      "constant": false,
      "inputs": [
        {
          "name": "_recipient",
          "type": "address"
        }
      ],
      "name": "destroyAndSend",
      "outputs": [],
      "payable": false,
      "stateMutability": "nonpayable",
      "type": "function",
      "signature": "0xf5074f41"
    },
    {
      "inputs": [],
      "payable": false,
      "stateMutability": "nonpayable",
      "type": "constructor",
      "signature": "constructor"
    },
    {
      "payable": true,
      "stateMutability": "payable",
      "type": "fallback"
    },
    {
      "anonymous": false,
      "inputs": [
        {
          "indexed": true,
          "name": "enroller",
          "type": "address"
        }
      ],
      "name": "Enrolled",
      "type": "event",
      "signature": "0x6132d0e5700fe03060d64172a9ce706f525f7dfacb454a300ba78f4b50fc8722"
    },
    {
      "anonymous": false,
      "inputs": [
        {
          "indexed": true,
          "name": "donor",
          "type": "address"
        },
        {
          "indexed": false,
          "name": "amount",
          "type": "uint256"
        }
      ],
      "name": "Donated",
      "type": "event",
      "signature": "0x2a01595cddf097c90216094025db714da3f4e5bd8877b56ba86a24ecead8e543"
    },
    {
      "anonymous": false,
      "inputs": [
        {
          "indexed": true,
          "name": "winner",
          "type": "address"
        }
      ],
      "name": "AwardWithdrawn",
      "type": "event",
      "signature": "0x629da45432f4c3ef35d698fd5701b99dcf05121bef5c51f633279e9a139a0984"
    },
    {
      "anonymous": false,
      "inputs": [
        {
          "indexed": true,
          "name": "previousOwner",
          "type": "address"
        },
        {
          "indexed": true,
          "name": "newOwner",
          "type": "address"
        }
      ],
      "name": "OwnershipTransferred",
      "type": "event",
      "signature": "0x8be0079c531659141344cd1fd0a4f28419497f9722a3daafe3b4186f6b6457e0"
    },
    {
      "constant": false,
      "inputs": [],
      "name": "toggleContractActive",
      "outputs": [],
      "payable": false,
      "stateMutability": "nonpayable",
      "type": "function",
      "signature": "0x1385d24c"
    },
    {
      "constant": false,
      "inputs": [
        {
          "name": "count",
          "type": "uint256"
        }
      ],
      "name": "registerImage",
      "outputs": [],
      "payable": false,
      "stateMutability": "nonpayable",
      "type": "function",
      "signature": "0x4a14d706"
    },
    {
      "constant": false,
      "inputs": [],
      "name": "enroll",
      "outputs": [],
      "payable": true,
      "stateMutability": "payable",
      "type": "function",
      "signature": "0xe65f2a7e"
    },
    {
      "constant": false,
      "inputs": [],
      "name": "acceptDonation",
      "outputs": [],
      "payable": true,
      "stateMutability": "payable",
      "type": "function",
      "signature": "0x31c660c4"
    },
    {
      "constant": true,
      "inputs": [],
      "name": "getBiggestDonation",
      "outputs": [
        {
          "name": "",
          "type": "uint256"
        }
      ],
      "payable": false,
      "stateMutability": "view",
      "type": "function",
      "signature": "0xad17a549"
    },
    {
      "constant": true,
      "inputs": [],
      "name": "getTotalDonations",
      "outputs": [
        {
          "name": "",
          "type": "uint256"
        }
      ],
      "payable": false,
      "stateMutability": "view",
      "type": "function",
      "signature": "0x777c658f"
    },
    {
      "constant": true,
      "inputs": [],
      "name": "hasDonated",
      "outputs": [
        {
          "name": "",
          "type": "bool"
        }
      ],
      "payable": false,
      "stateMutability": "view",
      "type": "function",
      "signature": "0xd64bb924"
    },
    {
      "constant": false,
      "inputs": [],
      "name": "receiveAward",
      "outputs": [],
      "payable": true,
      "stateMutability": "payable",
      "type": "function",
      "signature": "0xdf86aa6b"
    },
    {
      "constant": true,
      "inputs": [],
      "name": "getCountImagesFor",
      "outputs": [
        {
          "name": "",
          "type": "uint256"
        }
      ],
      "payable": false,
      "stateMutability": "view",
      "type": "function",
      "signature": "0x23d565d0"
    },
    {
      "constant": true,
      "inputs": [],
      "name": "getMostImages",
      "outputs": [
        {
          "name": "",
          "type": "address"
        }
      ],
      "payable": false,
      "stateMutability": "view",
      "type": "function",
      "signature": "0x036aa730"
    }
  ],
  "bytecode": "0x608060405234801561001057600080fd5b50336000806101000a81548173ffffffffffffffffffffffffffffffffffffffff021916908373ffffffffffffffffffffffffffffffffffffffff16021790555042600b819055506000600a60006101000a81548160ff0219169083151502179055506001600a60016101000a81548160ff02191690831515021790555061183a8061009d6000396000f3fe6080604052600436106100e6576000357c0100000000000000000000000000000000000000000000000000000000900463ffffffff168063036aa730146100eb5780631385d24c1461014257806318c08f6f1461015957806323d565d01461018857806331c660c4146101b35780634a14d706146101bd57806375f12b21146101f8578063777c658f1461022757806383197ef0146102525780638da5cb5b14610269578063ad17a549146102c0578063d64bb924146102eb578063df86aa6b1461031a578063e65f2a7e14610324578063f2fde38b1461032e578063f5074f411461037f575b600080fd5b3480156100f757600080fd5b506101006103d0565b604051808273ffffffffffffffffffffffffffffffffffffffff1673ffffffffffffffffffffffffffffffffffffffff16815260200191505060405180910390f35b34801561014e57600080fd5b50610157610480565b005b34801561016557600080fd5b5061016e61056c565b604051808215151515815260200191505060405180910390f35b34801561019457600080fd5b5061019d61057f565b6040518082815260200191505060405180910390f35b6101bb610663565b005b3480156101c957600080fd5b506101f6600480360360208110156101e057600080fd5b81019080803590602001909291905050506107b9565b005b34801561020457600080fd5b5061020d61099d565b604051808215151515815260200191505060405180910390f35b34801561023357600080fd5b5061023c6109b0565b6040518082815260200191505060405180910390f35b34801561025e57600080fd5b50610267610bb3565b005b34801561027557600080fd5b5061027e610c48565b604051808273ffffffffffffffffffffffffffffffffffffffff1673ffffffffffffffffffffffffffffffffffffffff16815260200191505060405180910390f35b3480156102cc57600080fd5b506102d5610c6d565b6040518082815260200191505060405180910390f35b3480156102f757600080fd5b50610300610e70565b604051808215151515815260200191505060405180910390f35b610322610f54565b005b61032c6114d3565b005b34801561033a57600080fd5b5061037d6004803603602081101561035157600080fd5b81019080803573ffffffffffffffffffffffffffffffffffffffff169060200190929190505050611645565b005b34801561038b57600080fd5b506103ce600480360360208110156103a257600080fd5b81019080803573ffffffffffffffffffffffffffffffffffffffff16906020019092919050505061179a565b005b6000600173__GameLib_______________________________63801de72390916040518263ffffffff167c01000000000000000000000000000000000000000000000000000000000281526004018082815260200191505060206040518083038186803b15801561044057600080fd5b505af4158015610454573d6000803e3d6000fd5b505050506040513d602081101561046a57600080fd5b8101908080519060200190929190505050905090565b6000809054906101000a900473ffffffffffffffffffffffffffffffffffffffff1673ffffffffffffffffffffffffffffffffffffffff163373ffffffffffffffffffffffffffffffffffffffff161415156104db57600080fd5b600a60009054906101000a900460ff1615610524576001600a60016101000a81548160ff02191690831515021790555042601c600b54011015151561051f57600080fd5b610540565b6000600a60016101000a81548160ff0219169083151502179055505b600a60009054906101000a900460ff1615600a60006101000a81548160ff021916908315150217905550565b600a60019054906101000a900460ff1681565b6000600173__GameLib_______________________________63ab6f9cc39091336040518363ffffffff167c0100000000000000000000000000000000000000000000000000000000028152600401808381526020018273ffffffffffffffffffffffffffffffffffffffff1673ffffffffffffffffffffffffffffffffffffffff1681526020019250505060206040518083038186803b15801561062357600080fd5b505af4158015610637573d6000803e3d6000fd5b505050506040513d602081101561064d57600080fd5b8101908080519060200190929190505050905090565b6000341115156106db576040517f08c379a00000000000000000000000000000000000000000000000000000000081526004018080602001828103825260158152602001807f506c656173652073656e64207573206d6f6e657921000000000000000000000081525060200191505060405180910390fd5b600573__DonationLib___________________________63fe6697e79091346040518363ffffffff167c0100000000000000000000000000000000000000000000000000000000028152600401808381526020018281526020019250505060006040518083038186803b15801561075157600080fd5b505af4158015610765573d6000803e3d6000fd5b505050503373ffffffffffffffffffffffffffffffffffffffff167f2a01595cddf097c90216094025db714da3f4e5bd8877b56ba86a24ecead8e543346040518082815260200191505060405180910390a2565b33600573__DonationLib___________________________63947a8e599091836040518363ffffffff167c0100000000000000000000000000000000000000000000000000000000028152600401808381526020018273ffffffffffffffffffffffffffffffffffffffff1673ffffffffffffffffffffffffffffffffffffffff1681526020019250505060206040518083038186803b15801561085c57600080fd5b505af4158015610870573d6000803e3d6000fd5b505050506040513d602081101561088657600080fd5b8101908080519060200190929190505050151561090b576040517f08c379a00000000000000000000000000000000000000000000000000000000081526004018080602001828103825260188152602001807f596f75206861766520746f20666972737420656e726f6c6c000000000000000081525060200191505060405180910390fd5b600173__GameLib_______________________________63e308aaad9091846040518363ffffffff167c0100000000000000000000000000000000000000000000000000000000028152600401808381526020018281526020019250505060006040518083038186803b15801561098157600080fd5b505af4158015610995573d6000803e3d6000fd5b505050505050565b600a60009054906101000a900460ff1681565b600033600573__DonationLib___________________________63947a8e599091836040518363ffffffff167c0100000000000000000000000000000000000000000000000000000000028152600401808381526020018273ffffffffffffffffffffffffffffffffffffffff1673ffffffffffffffffffffffffffffffffffffffff1681526020019250505060206040518083038186803b158015610a5557600080fd5b505af4158015610a69573d6000803e3d6000fd5b505050506040513d6020811015610a7f57600080fd5b81019080805190602001909291905050501515610b04576040517f08c379a00000000000000000000000000000000000000000000000000000000081526004018080602001828103825260188152602001807f596f75206861766520746f20666972737420656e726f6c6c000000000000000081525060200191505060405180910390fd5b600573__DonationLib___________________________635621e3d790916040518263ffffffff167c01000000000000000000000000000000000000000000000000000000000281526004018082815260200191505060206040518083038186803b158015610b7257600080fd5b505af4158015610b86573d6000803e3d6000fd5b505050506040513d6020811015610b9c57600080fd5b810190808051906020019092919050505091505090565b6000809054906101000a900473ffffffffffffffffffffffffffffffffffffffff1673ffffffffffffffffffffffffffffffffffffffff163373ffffffffffffffffffffffffffffffffffffffff16141515610c0e57600080fd5b6000809054906101000a900473ffffffffffffffffffffffffffffffffffffffff1673ffffffffffffffffffffffffffffffffffffffff16ff5b6000809054906101000a900473ffffffffffffffffffffffffffffffffffffffff1681565b600033600573__DonationLib___________________________63947a8e599091836040518363ffffffff167c0100000000000000000000000000000000000000000000000000000000028152600401808381526020018273ffffffffffffffffffffffffffffffffffffffff1673ffffffffffffffffffffffffffffffffffffffff1681526020019250505060206040518083038186803b158015610d1257600080fd5b505af4158015610d26573d6000803e3d6000fd5b505050506040513d6020811015610d3c57600080fd5b81019080805190602001909291905050501515610dc1576040517f08c379a00000000000000000000000000000000000000000000000000000000081526004018080602001828103825260188152602001807f596f75206861766520746f20666972737420656e726f6c6c000000000000000081525060200191505060405180910390fd5b600573__DonationLib___________________________632b153c7390916040518263ffffffff167c01000000000000000000000000000000000000000000000000000000000281526004018082815260200191505060206040518083038186803b158015610e2f57600080fd5b505af4158015610e43573d6000803e3d6000fd5b505050506040513d6020811015610e5957600080fd5b810190808051906020019092919050505091505090565b6000600573__DonationLib___________________________63947a8e599091336040518363ffffffff167c0100000000000000000000000000000000000000000000000000000000028152600401808381526020018273ffffffffffffffffffffffffffffffffffffffff1673ffffffffffffffffffffffffffffffffffffffff1681526020019250505060206040518083038186803b158015610f1457600080fd5b505af4158015610f28573d6000803e3d6000fd5b505050506040513d6020811015610f3e57600080fd5b8101908080519060200190929190505050905090565b33600573__DonationLib___________________________63947a8e599091836040518363ffffffff167c0100000000000000000000000000000000000000000000000000000000028152600401808381526020018273ffffffffffffffffffffffffffffffffffffffff1673ffffffffffffffffffffffffffffffffffffffff1681526020019250505060206040518083038186803b158015610ff757600080fd5b505af415801561100b573d6000803e3d6000fd5b505050506040513d602081101561102157600080fd5b810190808051906020019092919050505015156110a6576040517f08c379a00000000000000000000000000000000000000000000000000000000081526004018080602001828103825260188152602001807f596f75206861766520746f20666972737420656e726f6c6c000000000000000081525060200191505060405180910390fd5b42601c600b5401111515611148576040517f08c379a00000000000000000000000000000000000000000000000000000000081526004018080602001828103825260388152602001807f54686520616374696f6e20697320617661696c61626c65206f6e6c792077686581526020017f6e2073746f7020706572696f642068617320706173736564000000000000000081525060400191505060405180910390fd5b60003390508073ffffffffffffffffffffffffffffffffffffffff16600173__GameLib_______________________________63801de72390916040518263ffffffff167c01000000000000000000000000000000000000000000000000000000000281526004018082815260200191505060206040518083038186803b1580156111d257600080fd5b505af41580156111e6573d6000803e3d6000fd5b505050506040513d60208110156111fc57600080fd5b810190808051906020019092919050505073ffffffffffffffffffffffffffffffffffffffff16141515611298576040517f08c379a000000000000000000000000000000000000000000000000000000000815260040180806020018281038252601a8152602001807f4f6e6c79207468652077696e6e65722063616e2067657420697400000000000081525060200191505060405180910390fd5b600173__GameLib_______________________________636706166390916040518263ffffffff167c01000000000000000000000000000000000000000000000000000000000281526004018082815260200191505060006040518083038186803b15801561130657600080fd5b505af415801561131a573d6000803e3d6000fd5b50505050600573__DonationLib___________________________63b5bc519b90916040518263ffffffff167c01000000000000000000000000000000000000000000000000000000000281526004018082815260200191505060006040518083038186803b15801561138c57600080fd5b505af41580156113a0573d6000803e3d6000fd5b5050505060013073ffffffffffffffffffffffffffffffffffffffff1631111561142e576000809054906101000a900473ffffffffffffffffffffffffffffffffffffffff1673ffffffffffffffffffffffffffffffffffffffff166108fc60019081150290604051600060405180830381858888f1935050505015801561142c573d6000803e3d6000fd5b505b8073ffffffffffffffffffffffffffffffffffffffff166108fc3073ffffffffffffffffffffffffffffffffffffffff16319081150290604051600060405180830381858888f1935050505015801561148b573d6000803e3d6000fd5b508073ffffffffffffffffffffffffffffffffffffffff167f629da45432f4c3ef35d698fd5701b99dcf05121bef5c51f633279e9a139a098460405160405180910390a25050565b60013410151515611572576040517f08c379a00000000000000000000000000000000000000000000000000000000081526004018080602001828103825260268152602001807f53656e64206174206c65617374206f6e6520657468657220746f20706172746981526020017f636970617465000000000000000000000000000000000000000000000000000081525060400191505060405180910390fd5b600573__DonationLib___________________________63fe6697e79091346040518363ffffffff167c0100000000000000000000000000000000000000000000000000000000028152600401808381526020018281526020019250505060006040518083038186803b1580156115e857600080fd5b505af41580156115fc573d6000803e3d6000fd5b505050503373ffffffffffffffffffffffffffffffffffffffff167f6132d0e5700fe03060d64172a9ce706f525f7dfacb454a300ba78f4b50fc872260405160405180910390a2565b6000809054906101000a900473ffffffffffffffffffffffffffffffffffffffff1673ffffffffffffffffffffffffffffffffffffffff163373ffffffffffffffffffffffffffffffffffffffff161415156116a057600080fd5b600073ffffffffffffffffffffffffffffffffffffffff168173ffffffffffffffffffffffffffffffffffffffff16141515156116dc57600080fd5b8073ffffffffffffffffffffffffffffffffffffffff166000809054906101000a900473ffffffffffffffffffffffffffffffffffffffff1673ffffffffffffffffffffffffffffffffffffffff167f8be0079c531659141344cd1fd0a4f28419497f9722a3daafe3b4186f6b6457e060405160405180910390a3806000806101000a81548173ffffffffffffffffffffffffffffffffffffffff021916908373ffffffffffffffffffffffffffffffffffffffff16021790555050565b6000809054906101000a900473ffffffffffffffffffffffffffffffffffffffff1673ffffffffffffffffffffffffffffffffffffffff163373ffffffffffffffffffffffffffffffffffffffff161415156117f557600080fd5b8073ffffffffffffffffffffffffffffffffffffffff16fffea165627a7a72305820fd9353d9111a71350abf9087bb52c5d779db7afcf4cfb481de9eb6d9416ba5440029",
  "source": "pragma solidity >=0.4.25 <0.6.0;\r\n\r\nimport \"./Ownable.sol\";\r\nimport \"./Destructible.sol\";\r\nimport \"./GameLib.sol\";\r\nimport \"./SafeMathLib.sol\";\r\nimport \"./DonationLib.sol\";\r\n\r\ncontract FaceRecognition is Ownable, Destructible {\r\n    using GameLib for GameLib.Data;\r\n    using DonationLib for DonationLib.Data;\r\n    using SafeMathLib for uint;\r\n    \r\n    GameLib.Data gamelibData;\r\n    DonationLib.Data donationLibData;\r\n\r\n    event Enrolled(address indexed enroller);\r\n    event Donated(address indexed donor, uint amount);\r\n    event AwardWithdrawn(address indexed winner);\r\n    uint constant stopPeriod = 28;\r\n    \r\n    uint winningPeriod;\r\n    bool public stopped;\r\n    bool public willBeStoppedInFourWeeks;\r\n    uint startTime;\r\n    \r\n    constructor() public {\r\n        startTime = now;\r\n        stopped = false;\r\n        willBeStoppedInFourWeeks = true;\r\n    }\r\n    \r\n    modifier onlyAfterPeriod() {\r\n        require(startTime + stopPeriod > now, \"The action is available only when stop period has passed\");\r\n        _;\r\n    }\r\n\r\n    modifier stopInEmergency { \r\n        require(!stopped);\r\n        _;\r\n    }\r\n    \r\n    modifier onlyInEmergency { \r\n        require(stopped);\r\n        _;\r\n    }\r\n    \r\n    modifier onlyEnrolled(address isEnrolled) {\r\n        require(donationLibData.hasDonated(isEnrolled), \"You have to first enroll\");\r\n        _;\r\n    }\r\n    \r\n    function toggleContractActive() onlyOwner public {\r\n        if (stopped) {\r\n            willBeStoppedInFourWeeks = true;\r\n            require(startTime + stopPeriod >= now);\r\n        } else {\r\n            willBeStoppedInFourWeeks = false;\r\n        }\r\n        stopped = !stopped;\r\n    }\r\n    \r\n    function registerImage(uint count) public onlyEnrolled(msg.sender) {\r\n        gamelibData.registerCount(count);\r\n    }\r\n    \r\n    function enroll() public payable {\r\n        require(msg.value >= 1, \"Send at least one ether to participate\");\r\n        donationLibData.receiveDonation(msg.value);\r\n        emit Enrolled(msg.sender);\r\n    }\r\n    \r\n    function acceptDonation() public payable {\r\n        require(msg.value > 0, \"Please send us money!\");\r\n        donationLibData.receiveDonation(msg.value);\r\n        emit Donated(msg.sender, msg.value);\r\n    }\r\n    \r\n    function getBiggestDonation() public view onlyEnrolled(msg.sender) returns(uint) {\r\n        return donationLibData.getBiggestDonation();\r\n    }\r\n    \r\n    function getTotalDonations() public view  onlyEnrolled(msg.sender) returns(uint) {\r\n        return donationLibData.getTotalDonations();\r\n    }\r\n\r\n    function hasDonated() public view returns(bool) {\r\n        return donationLibData.hasDonated(msg.sender);\r\n    }\r\n    \r\n    function receiveAward() public payable onlyEnrolled(msg.sender) onlyAfterPeriod {\r\n        address payable currentUser = msg.sender;\r\n        require(gamelibData.getMostImages() == currentUser, \"Only the winner can get it\");        \r\n        gamelibData.reset();\r\n        donationLibData.reset();\r\n        if (address(this).balance > 1) {\r\n            owner.transfer(1);\r\n        }\r\n        currentUser.transfer(address(this).balance);\r\n        emit AwardWithdrawn(currentUser);\r\n    }\r\n\r\n    function getCountImagesFor() public view returns(uint) {\r\n        return gamelibData.getCountImagesFor(msg.sender);\r\n    }\r\n\r\n    function getMostImages() public view returns(address) {\r\n        return gamelibData.getMostImages();\r\n    }\r\n    \r\n    function() external payable {\r\n        revert();\r\n    }\r\n}",
  "sourcePath": "S:/Programming/FaceRecognition/truffleReact/contracts/FaceRecognition.sol",
  "compiler": {
    "name": "solc",
    "version": "0.5.0+commit.1d4f565a.Emscripten.clang"
  },
  "schemaVersion": "3.0.6",
  "updatedAt": "2019-04-13T22:49:16.089Z",
  "devdoc": {
    "methods": {}
  },
  "userdoc": {
    "methods": {}
  }
}