{
  "contractName": "GameLib",
  "abi": [
    {
      "anonymous": false,
      "inputs": [
        {
          "indexed": true,
          "name": "player",
          "type": "address"
        },
        {
          "indexed": false,
          "name": "count",
          "type": "uint256"
        }
      ],
      "name": "RegisterCount",
      "type": "event",
      "signature": "0xf645a70c6b852b06989f06f0f75c55c70a00e365be0fc339d41037e4c22abacd"
    },
    {
      "constant": false,
      "inputs": [
        {
          "name": "self",
          "type": "GameLib.Data storage"
        },
        {
          "name": "countImages",
          "type": "uint256"
        }
      ],
      "name": "registerCount",
      "outputs": [],
      "payable": false,
      "stateMutability": "nonpayable",
      "type": "function",
      "signature": "0xe308aaad"
    },
    {
      "constant": true,
      "inputs": [
        {
          "name": "self",
          "type": "GameLib.Data storage"
        }
      ],
      "name": "getMostImages",
      "outputs": [
        {
          "name": "",
          "type": "address"
        }
      ],
      "payable": false,
      "stateMutability": "view",
      "type": "function",
      "signature": "0x801de723"
    },
    {
      "constant": true,
      "inputs": [
        {
          "name": "self",
          "type": "GameLib.Data storage"
        },
        {
          "name": "user",
          "type": "address"
        }
      ],
      "name": "getCountImagesFor",
      "outputs": [
        {
          "name": "",
          "type": "uint256"
        }
      ],
      "payable": false,
      "stateMutability": "view",
      "type": "function",
      "signature": "0xab6f9cc3"
    },
    {
      "constant": false,
      "inputs": [
        {
          "name": "self",
          "type": "GameLib.Data storage"
        }
      ],
      "name": "reset",
      "outputs": [],
      "payable": false,
      "stateMutability": "nonpayable",
      "type": "function",
      "signature": "0x67061663"
    }
  ],
  "bytecode": "0x61061e610030600b82828239805160001a6073146000811461002057610022565bfe5b5030600052607381538281f3fe7300000000000000000000000000000000000000003014608060405260043610610079576000357c0100000000000000000000000000000000000000000000000000000000900463ffffffff168063670616631461007e578063801de723146100b9578063ab6f9cc314610127578063e308aaad14610189575b600080fd5b81801561008a57600080fd5b506100b7600480360360208110156100a157600080fd5b81019080803590602001909291905050506101ce565b005b6100e5600480360360208110156100cf57600080fd5b81019080803590602001909291905050506102d2565b604051808273ffffffffffffffffffffffffffffffffffffffff1673ffffffffffffffffffffffffffffffffffffffff16815260200191505060405180910390f35b6101736004803603604081101561013d57600080fd5b8101908080359060200190929190803573ffffffffffffffffffffffffffffffffffffffff169060200190929190505050610300565b6040518082815260200191505060405180910390f35b81801561019557600080fd5b506101cc600480360360408110156101ac57600080fd5b81019080803590602001909291908035906020019092919050505061034c565b005b60008160010160006101000a81548173ffffffffffffffffffffffffffffffffffffffff021916908373ffffffffffffffffffffffffffffffffffffffff1602179055506000816002018190555060008090505b81600301805490508110156102be57816000016000836003018381548110151561024857fe5b9060005260206000200160009054906101000a900473ffffffffffffffffffffffffffffffffffffffff1673ffffffffffffffffffffffffffffffffffffffff1673ffffffffffffffffffffffffffffffffffffffff168152602001908152602001600020600090558080600101915050610222565b508060030160006102cf91906105ac565b50565b60008160010160009054906101000a900473ffffffffffffffffffffffffffffffffffffffff169050919050565b60008260000160008373ffffffffffffffffffffffffffffffffffffffff1673ffffffffffffffffffffffffffffffffffffffff16815260200190815260200160002054905092915050565b6000811115156103c4576040517f08c379a000000000000000000000000000000000000000000000000000000000815260040180806020018281038252600b8152602001807f53656e6420496d6167657300000000000000000000000000000000000000000081525060200191505060405180910390fd5b600033905060008360000160008373ffffffffffffffffffffffffffffffffffffffff1673ffffffffffffffffffffffffffffffffffffffff1681526020019081526020016000205411151561047d57826003018190806001815401808255809150509060018203906000526020600020016000909192909190916101000a81548173ffffffffffffffffffffffffffffffffffffffff021916908373ffffffffffffffffffffffffffffffffffffffff160217905550505b818360000160008373ffffffffffffffffffffffffffffffffffffffff1673ffffffffffffffffffffffffffffffffffffffff1681526020019081526020016000206000828254019250508190555082600201548360000160008373ffffffffffffffffffffffffffffffffffffffff1673ffffffffffffffffffffffffffffffffffffffff1681526020019081526020016000205411156105a757808360010160006101000a81548173ffffffffffffffffffffffffffffffffffffffff021916908373ffffffffffffffffffffffffffffffffffffffff1602179055508260000160008273ffffffffffffffffffffffffffffffffffffffff1673ffffffffffffffffffffffffffffffffffffffff1681526020019081526020016000205483600201819055505b505050565b50805460008255906000526020600020908101906105ca91906105cd565b50565b6105ef91905b808211156105eb5760008160009055506001016105d3565b5090565b9056fea165627a7a7230582047877e4fcea18f030e9fef96c1a9cb003ce45865461b0094e0462a64fd56d0a80029",
  "source": " pragma solidity >=0.4.25 <0.6.0;\r\n \r\nlibrary GameLib {\r\n    struct Data {\r\n        mapping(address => uint) countImages;\r\n        address mostImages;\r\n        uint mostImagesCount;\r\n        address[] allAdresses;\r\n    }\r\n    \r\n    event RegisterCount(address indexed player, uint count);\r\n    \r\n    function registerCount(Data storage self, uint countImages) public {\r\n        require(countImages > 0, \"Send Images\");\r\n        address currentAddress = msg.sender;\r\n        if (self.countImages[currentAddress] <= 0) {\r\n            self.allAdresses.push(currentAddress);\r\n        }\r\n        self.countImages[currentAddress] += countImages;\r\n        if (self.countImages[currentAddress] > self.mostImagesCount) {\r\n            self.mostImages = currentAddress;\r\n            self.mostImagesCount = self.countImages[currentAddress];\r\n        }\r\n        \r\n    }\r\n    \r\n    function getMostImages(Data storage self) public view returns(address) {\r\n        return self.mostImages;\r\n    }\r\n\r\n    function getCountImagesFor(Data storage self, address user) public view returns(uint) {\r\n        return self.countImages[user];\r\n    }\r\n    \r\n    function reset(Data storage self) public {\r\n        self.mostImages = address(0x0);\r\n        self.mostImagesCount = 0;\r\n        for (uint i=0; i< self.allAdresses.length; i++) {\r\n            delete(self.countImages[self.allAdresses[i]]);\r\n        }\r\n        delete self.allAdresses;\r\n    }\r\n}",
  "sourcePath": "S:\\Programming\\FaceRecognition\\truffleReact\\contracts\\GameLib.sol",
  "compiler": {
    "name": "solc",
    "version": "0.5.0+commit.1d4f565a.Emscripten.clang"
  },
  "schemaVersion": "3.0.6",
  "updatedAt": "2019-04-13T22:49:16.081Z",
  "devdoc": {
    "methods": {}
  },
  "userdoc": {
    "methods": {}
  }
}